{
  "contractName": "Lottery",
  "abi": [
    {
      "inputs": [],
      "stateMutability": "nonpayable",
      "type": "constructor"
    },
    {
      "anonymous": false,
      "inputs": [
        {
          "indexed": false,
          "internalType": "uint256",
          "name": "idx",
          "type": "uint256"
        },
        {
          "indexed": false,
          "internalType": "address",
          "name": "bettor",
          "type": "address"
        },
        {
          "indexed": false,
          "internalType": "uint256",
          "name": "amoumt",
          "type": "uint256"
        },
        {
          "indexed": false,
          "internalType": "bytes1",
          "name": "challenges",
          "type": "bytes1"
        },
        {
          "indexed": false,
          "internalType": "uint256",
          "name": "answerBlockNumber",
          "type": "uint256"
        }
      ],
      "name": "BET",
      "type": "event"
    },
    {
      "inputs": [],
      "name": "owner",
      "outputs": [
        {
          "internalType": "address",
          "name": "",
          "type": "address"
        }
      ],
      "stateMutability": "view",
      "type": "function",
      "constant": true
    },
    {
      "inputs": [],
      "name": "getPot",
      "outputs": [
        {
          "internalType": "uint256",
          "name": "pot",
          "type": "uint256"
        }
      ],
      "stateMutability": "view",
      "type": "function",
      "constant": true
    },
    {
      "inputs": [
        {
          "internalType": "uint256",
          "name": "idx",
          "type": "uint256"
        }
      ],
      "name": "getBetInfo",
      "outputs": [
        {
          "internalType": "uint256",
          "name": "answerBlockNumber",
          "type": "uint256"
        },
        {
          "internalType": "address",
          "name": "bettor",
          "type": "address"
        },
        {
          "internalType": "bytes1",
          "name": "challenges",
          "type": "bytes1"
        }
      ],
      "stateMutability": "view",
      "type": "function",
      "constant": true
    },
    {
      "inputs": [
        {
          "internalType": "bytes1",
          "name": "challenges",
          "type": "bytes1"
        }
      ],
      "name": "bet",
      "outputs": [
        {
          "internalType": "bool",
          "name": "result",
          "type": "bool"
        }
      ],
      "stateMutability": "payable",
      "type": "function",
      "payable": true
    }
  ],
  "bytecode": "0x608060405234801561001057600080fd5b5033600360006101000a81548173ffffffffffffffffffffffffffffffffffffffff021916908373ffffffffffffffffffffffffffffffffffffffff16021790555061091a806100616000396000f3fe60806040526004361061003f5760003560e01c8063403c9fa81461004457806379141f801461006f5780638da5cb5b146100ae578063f4b46f5b146100d9575b600080fd5b34801561005057600080fd5b50610059610109565b60405161006691906104f3565b60405180910390f35b34801561007b57600080fd5b506100966004803603810190610091919061053f565b610113565b6040516100a5939291906105e8565b60405180910390f35b3480156100ba57600080fd5b506100c3610211565b6040516100d0919061061f565b60405180910390f35b6100f360048036038101906100ee9190610666565b610237565b60405161010091906106ae565b60405180910390f35b6000600454905090565b60008060008060026000868152602001908152602001600020604051806060016040529081600082015481526020016001820160009054906101000a900473ffffffffffffffffffffffffffffffffffffffff1673ffffffffffffffffffffffffffffffffffffffff1673ffffffffffffffffffffffffffffffffffffffff1681526020016001820160149054906101000a900460f81b7effffffffffffffffffffffffffffffffffffffffffffffffffffffffffffff19167effffffffffffffffffffffffffffffffffffffffffffffffffffffffffffff1916815250509050806000015193508060200151925080604001519150509193909250565b600360009054906101000a900473ffffffffffffffffffffffffffffffffffffffff1681565b6000816611c37937e080003414610283576040517f08c379a000000000000000000000000000000000000000000000000000000000815260040161027a90610726565b60405180910390fd5b61028c8161032e565b6102cb576040517f08c379a00000000000000000000000000000000000000000000000000000000081526004016102c290610792565b60405180910390fd5b7f100791de9f40bf2d56ffa6dc5597d2fd0b2703ea70bc7548cd74c04f5d215ab760016000546102fb91906107e1565b33348660034361030b9190610815565b60405161031c959493929190610849565b60405180910390a16001915050919050565b6000610338610481565b33816020019073ffffffffffffffffffffffffffffffffffffffff16908173ffffffffffffffffffffffffffffffffffffffff168152505060034361037d9190610815565b8160000181815250508281604001907effffffffffffffffffffffffffffffffffffffffffffffffffffffffffffff191690817effffffffffffffffffffffffffffffffffffffffffffffffffffffffffffff1916815250508060026000805481526020019081526020016000206000820151816000015560208201518160010160006101000a81548173ffffffffffffffffffffffffffffffffffffffff021916908373ffffffffffffffffffffffffffffffffffffffff16021790555060408201518160010160146101000a81548160ff021916908360f81c02179055509050506000808154809291906104729061089c565b91905055506001915050919050565b604051806060016040528060008152602001600073ffffffffffffffffffffffffffffffffffffffff16815260200160007effffffffffffffffffffffffffffffffffffffffffffffffffffffffffffff191681525090565b6000819050919050565b6104ed816104da565b82525050565b600060208201905061050860008301846104e4565b92915050565b600080fd5b61051c816104da565b811461052757600080fd5b50565b60008135905061053981610513565b92915050565b6000602082840312156105555761055461050e565b5b60006105638482850161052a565b91505092915050565b600073ffffffffffffffffffffffffffffffffffffffff82169050919050565b60006105978261056c565b9050919050565b6105a78161058c565b82525050565b60007fff0000000000000000000000000000000000000000000000000000000000000082169050919050565b6105e2816105ad565b82525050565b60006060820190506105fd60008301866104e4565b61060a602083018561059e565b61061760408301846105d9565b949350505050565b6000602082019050610634600083018461059e565b92915050565b610643816105ad565b811461064e57600080fd5b50565b6000813590506106608161063a565b92915050565b60006020828403121561067c5761067b61050e565b5b600061068a84828501610651565b91505092915050565b60008115159050919050565b6106a881610693565b82525050565b60006020820190506106c3600083018461069f565b92915050565b600082825260208201905092915050565b7f4e6f7420456e6f75676820455448000000000000000000000000000000000000600082015250565b6000610710600e836106c9565b915061071b826106da565b602082019050919050565b6000602082019050818103600083015261073f81610703565b9050919050565b7f4661696c20746f206164642061206e65772042657420696e666f000000000000600082015250565b600061077c601a836106c9565b915061078782610746565b602082019050919050565b600060208201905081810360008301526107ab8161076f565b9050919050565b7f4e487b7100000000000000000000000000000000000000000000000000000000600052601160045260246000fd5b60006107ec826104da565b91506107f7836104da565b925082820390508181111561080f5761080e6107b2565b5b92915050565b6000610820826104da565b915061082b836104da565b9250828201905080821115610843576108426107b2565b5b92915050565b600060a08201905061085e60008301886104e4565b61086b602083018761059e565b61087860408301866104e4565b61088560608301856105d9565b61089260808301846104e4565b9695505050505050565b60006108a7826104da565b91507fffffffffffffffffffffffffffffffffffffffffffffffffffffffffffffffff82036108d9576108d86107b2565b5b60018201905091905056fea2646970667358221220e9cef4b212c44281e43afbea642e92c16b071016e29c9148a2cd352d1635ee0964736f6c63430008130033",
  "immutableReferences": {},
  "source": "// SPDX-License-Identifier: MIT\r\npragma solidity >=0.4.22 <0.9.0;\r\n\r\ncontract Lottery {\r\n    struct BetInfo {\r\n        uint256 answerBlockNumber;\r\n        address payable bettor;\r\n        bytes1 challenges;\r\n    }\r\n\r\n    uint256 private _tail;\r\n    uint256 private _head;\r\n    mapping(uint256 => BetInfo) private _bets;\r\n\r\n    uint256 internal constant BLOCK_LIMIT = 256;\r\n    uint256 internal constant BET_BLOCK_INTERVAL = 3;\r\n    uint256 internal constant BET_AMOUNT = 5 * (10 ** 15);\r\n    address public owner;\r\n    uint256 private _pot;\r\n\r\n    event BET(\r\n        uint256 idx,\r\n        address bettor,\r\n        uint256 amoumt,\r\n        bytes1 challenges,\r\n        uint256 answerBlockNumber\r\n    );\r\n\r\n    constructor() {\r\n        owner = msg.sender;\r\n    }\r\n\r\n    function getPot() public view returns (uint256 pot) {\r\n        return _pot;\r\n    }\r\n\r\n    function getBetInfo(\r\n        uint256 idx\r\n    )\r\n        public\r\n        view\r\n        returns (uint256 answerBlockNumber, address bettor, bytes1 challenges)\r\n    {\r\n        BetInfo memory b = _bets[idx];\r\n        answerBlockNumber = b.answerBlockNumber;\r\n        bettor = b.bettor;\r\n        challenges = b.challenges;\r\n    }\r\n\r\n    function betPush(bytes1 challenges) internal returns (bool) {\r\n        BetInfo memory b;\r\n        b.bettor = payable(msg.sender);\r\n        b.answerBlockNumber = block.number + BET_BLOCK_INTERVAL;\r\n        b.challenges = challenges;\r\n\r\n        _bets[_tail] = b;\r\n        _tail++;\r\n\r\n        return true;\r\n    }\r\n\r\n    function betPop(uint256 idx) internal returns (bool) {\r\n        // delete     \r\n        //    delete   .\r\n        delete _bets[idx];\r\n        return true;\r\n    }\r\n\r\n    // Bet Modifier\r\n    modifier betCheck(bytes1 challenges) {\r\n        require(msg.value == BET_AMOUNT, \"Not Enough ETH\");\r\n        require(betPush(challenges), \"Fail to add a new Bet info\");\r\n        _;\r\n    }\r\n\r\n    // Bet function\r\n\r\n    /**\r\n    @dev  \r\n    @param challenges :   1byte \r\n    @return result :   true \r\n     */\r\n    function bet(\r\n        bytes1 challenges\r\n    ) public payable betCheck(challenges) returns (bool result) {\r\n        emit BET(\r\n            _tail - 1,\r\n            msg.sender,\r\n            msg.value,\r\n            challenges,\r\n            block.number + BET_BLOCK_INTERVAL\r\n        );\r\n\r\n        return true;\r\n    }\r\n}\r\n",
  "sourcePath": "C:\\Users\\user\\Desktop\\D209\\truffle\\contracts\\Lottery.sol",
  "compiler": {
    "name": "solc",
    "version": "0.8.19+commit.7dd6d404.Emscripten.clang"
  },
  "schemaVersion": "3.4.16",
  "updatedAt": "2024-03-03T15:23:16.556Z",
  "networkType": "ethereum",
  "devdoc": {
    "kind": "dev",
    "methods": {
      "bet(bytes1)": {
        "details": " ",
        "params": {
          "challenges": ":   1byte "
        },
        "returns": {
          "result": ":   true "
        }
      }
    },
    "version": 1
  },
  "userdoc": {
    "kind": "user",
    "methods": {},
    "version": 1
  }
}